:020000040800F2
:10000000D02B0020D5000008DD000008DF0000082C
:1000100000000000000000000000000000000000E0
:10002000000000000000000000000000E1000008E7
:100030000000000000000000E30000080D2B000895
:10004000E7000008E7000008E7000008E7000008F4
:10005000E7000008E7000008B1010008BB01000844
:10006000E7000008E7000008E7000008E7000008D4
:10007000A1010008E7000008E7000008E700000809
:10008000E7000008E7000008112C0008E70000085E
:10009000E7000008E7000008E7000008E7000008A4
:1000A000E7000008E70000087D2800081931000873
:1000B0003931000861310008E7000008953C00086C
:1000C0000348854600F02AF800480047E93C00084C
:1000D000D02B00200448804704480047FEE7FEE795
:1000E000FEE7FEE7FEE7FEE7992B0008C1000008E7
:1000F00030B50B46014600202022012409E00D46C0
:10010000D5409D4205D31D469540491B2546954047
:1001100040191546521E002DF1DC30BD064C01255C
:10012000064E05E0E36807CC2B430C3C984710349F
:10013000B442F7D3FFF7C8FFA4470008C44700083C
:1001400070B58D180478401CA207920F01D1027877
:10015000401C231106D10378401C03E006780E7082
:10016000401C491C521EF9D1002B15D002780C26D8
:100170008A1A3440401C0C2C03D0A401121B9B1C77
:1001800008E004782402121B401CF8E714780C7075
:10019000491C521C5B1EF9D5A942D3D3002070BD67
:1001A00010B5024803F014FE10BD000040270020E7
:1001B00010B5042003F050FF10BD10B5402003F02F
:1001C0004BFF0120800203F047FF0120C00203F033
:1001D00043FF0120000303F03FFF0120400303F031
:1001E0003BFF0120800303F037FF10BD704731B59E
:1001F000002400F057F9044600BF00F053F9001B3B
:1002000000998842F9D338BD10B504460121C902CE
:10021000601A8C4227D008DC042C11D0402C13D05B
:1002200001208002201A22D11CE00121C902401ABB
:100230001AD04900401A18D04900401A17D115E0C9
:100240000D4804F02BF813E040210C4800F016F99B
:10025000012803D1084804F06FF802E0064804F0D2
:100260005FF805E000BF00BF00BF00BF00E010BDA9
:1002700000BF00BFFBE70000C423002000100048BF
:1002800078B50346002200240020E3E001269640D2
:100290000D6835402C46002C7ED04D68022D02D0D2
:1002A0004D68122D15D1D508AE001D462035A85930
:1002B0005507EE0E0F25B5400646AE4330465607AD
:1002C000F60E0D69B5402843D508AD001E46203610
:1002D0007051186856000325B5400646AE433046B7
:1002E0000D79AD07AD0F5600B540284318604D6835
:1002F000012D08D04D68022D05D04D68112D02D07A
:100300004D68122D18D1986856000325B540064651
:10031000AE4330465600CD68B540284398605868D3
:10032000012595400646AE43304610264D683540BF
:100330002D09954028435860D86856000325B540DC
:100340000646AE43304656008D68B5402843D86017
:10035000012636074D683540B5427AD100BF404D81
:10036000AD69012635433E4EB5613546AD69ED07B1
:10037000ED0F009500BF00BF3A4D9608B600A85992
:1003800095072E0F0F25B5400646AE43304609258A
:10039000ED06AB4203D100E05BE0002514E0324DF6
:1003A000AB4201D101250FE0304DAB4201D1022516
:1003B0000AE02F4DAB4201D1032505E02D4DAB42A4
:1003C00001D1042500E005259607360FB5402843E6
:1003D000244D9608B600A851274D28680546A54328
:1003E0002846012636044D683540B54202D10546FF
:1003F00025432846204D286068680546A5432846C1
:10040000012676044D683540B54202D105462543A4
:100410002846194D6860A8680546A5432846012668
:1004200036054D683540B54202D10546254328467C
:10043000114DA860E8680546A543284601267605C3
:100440004D683540B54202D10546254328460A4D40
:10045000E860521C0D68D540002D00D016E778BD2D
:100460000010024008000140000400480008004855
:10047000000C0048001000480004014002461369C7
:100480000B40002B01D0012000E0002070474269A2
:100490004A4042617047002A01D0816100E08162D8
:1004A0007047000001480068704700000400002009
:1004B00002480068401C01490860704704000020A1
:1004C00010B5064800681021084304490860002060
:1004D00000F006F800F018F8002010BD00200240DF
:1004E00070B5044601F088F806467D21C900FFF783
:1004F000FFFD054601F0C6FC00222146501E00F01B
:1005000027F8002070BD000008B500BF09488069C9
:10051000012108430749886108468069C007C00F68
:10052000009000BF00BF00221146501E00F010F8DE
:1005300008BD00000010024000BFC206D20E01211B
:100540009140024A116000BF7047000000E100E0E6
:1005500070B504460D4616462946204601F002FFB6
:1005600070BD70B504460D461C21694323462833EF
:10057000C9180A69872189000859294602F0D7FF5E
:1005800070BD70B504460D461C2169432346FF33F8
:100590000933C9180A69872189000859294603F0D7
:1005A0003DF870BD70B502460B468020184080288B
:1005B00007D15806400E1C24604314462834011904
:1005C00005E01C2058431446FF340934011900206B
:1005D00088705806400E087080201840C009487086
:1005E00000BFFF20E930805C012801D1022070BDEE
:1005F0000124FF20E930845400BF4878002828D027
:100600000C78A4001068005B4024204000280BD028
:100610000C78A4001068005B274C2040274C204336
:100620000D78AD00146860530D78AD001468645BFC
:10063000214D30352C40204610246040202460405D
:10064000A402044380252C430E78B6001568AC53F1
:100650002AE00C78A4001068005B0124A403204069
:1006600000280BD00C78A4001068005B124C2040CE
:10067000134C20430D78AD00146860530D78AD0025
:100680001468645B0E4DF13D2C4020460124240388
:10069000604064006040A400044380252C430E7831
:1006A000B6001568AC5300BF00BF0024FF20E9303E
:1006B000845400BF00209AE78F8F0000C0800000A4
:1006C00080C00000FFB581B004460D4600200090B8
:1006D00080202840802807D16806400E1C235843FC
:1006E00023462833C11807E06806400E1C235843F0
:1006F0002346FF330933C1186806400E0870802076
:100700002840C0094870CA600498C87000BFFF2024
:10071000E930005D012802D1022005B0F0BD0123BF
:10072000FF20E930035500BFC878002806D0012813
:100730002BD0022810D0032835D118E00B789B006D
:100740002068C05AE64B1840FF30FF3002300E7868
:10075000B6002368985326E00B789B002068C05AA7
:10076000DF4B18400E78B600236898531BE00B78D7
:100770009B002068C05ADA4B184003235B02C01864
:100780000E78B600236898530DE00B789B00206824
:10079000C05AD34B184001239B02C0180E78B600F4
:1007A0002368985300BF00BF0B789B002068C05A95
:1007B000CC4B1840CC4B18430B7818430E78B6003E
:1007C00023689853887A00287ED14878002835D04D
:1007D00088884010430020684030008A0E78F60078
:1007E00080190127BF022668F61983530B789B00F6
:1007F0002068C05A4023184000280CD00B789B007A
:100800002068C05AB74B1840B74B403318430E7896
:10081000B600236898530E78B60023689B5BB14EF0
:10082000303633401846202358409B02034380262D
:1008300033430F78BF002668F35348E1888840109F
:10084000430020684030008A0E78F6008019001DB1
:100850000127BF022668F619835320684030008ABA
:100860000E78F6008019801D2668F6198319CE6867
:100870003E2E0FD9CE68F602300C0E7BF606F60E31
:10088000002E01D1461EB0B286020127FF033E436F
:100890001E800CE0CE68F603300C0E7BF607F60FD8
:1008A000002E01D0461CB0B28606360C1E800B7896
:1008B0009B002068C05A01239B03184000280DD0DC
:1008C0000B789B00206800E01EE0C05A854B184062
:1008D000864B18430E78B600236898530E78B600FE
:1008E00023689B5B814EF13E3340184601231B0376
:1008F00058405B0058409B000343802633430F78E9
:10090000BF002668F353E2E00B789B002068C05AD2
:10091000FF2301331843734B1840734B18430E7871
:10092000B60023689853C8884010430020684030C0
:10093000008A0E78F60080190127BF022668F61992
:10094000835308894010430020684030008A0E78A5
:10095000F6008019001D2668F61983534878002890
:100960005CD10B789B002068C05A3B0118400028DE
:100970000BD00B789B002068C05A5A4B18405B4B39
:1009800018430E78B600236898530B789B002068B4
:10099000C05A4023184000280CD00B789B002068D8
:1009A000C05A504B1840504B403318430E78B60095
:1009B000236898530B789B002068C05A494B184015
:1009C000494B403318430E78B600236898530E788D
:1009D000B60023689B5B454EF13E33401846012329
:1009E0001B0358405B0058409B0003438026334361
:1009F0000F78BF002668F3530E78B60023689B5B20
:100A0000384E3036334018460123DB03034380263B
:100A100033430F78BF002668F35358E00B789B00F0
:100A20002068C05A01239B03184000280BD00B7884
:100A30009B002068C05A2B4B18402C4B18430E7853
:100A4000B600236898530B789B002068C05A402357
:100A5000184000280CD00B789B002068C05A214B0E
:100A60001840214B403318430E78B6002368985342
:100A70000B789B002068C05A1A4B18401B4B184338
:100A80000E78B600236898530E78B60023689B5BF7
:100A9000144E3036334018460123DB0303438026CF
:100AA00033430F78BF002668F3530E78B6002368EF
:100AB0009B5B0E4EF13E334018460123DB0303439C
:100AC000802633430F78BF002668F35300BF00BF72
:100AD0000023FF20E930035500BF00981DE6000009
:100AE0008F8900008F8F00008080000080C0000090
:100AF000FFB504460D466806400E1C2250432246B0
:100B0000FF3209328118029808614B610020886128
:100B100048706806400E087000BFFF20E930005D95
:100B2000012802D1022004B0F0BD0122FF20E930EB
:100B3000025500BFCA684869904204D9CB68486929
:100B4000C01A486102E04B6900204861887A002899
:100B500027D120684030008A0E78F6008019801D69
:100B60000127BF022668F61982193E2B0DD9DE0235
:100B7000300CDE06F60E002E01D1461EB0B2860203
:100B80000127FF033E4316800AE0DE03300CDE0738
:100B9000F60F002E01D0461CB0B28606360C168029
:100BA00039E04878002827D120684030008A0E7844
:100BB000F6008019801D0127BF022668F6198219E8
:100BC0003E2B0DD9DE02300CDE06F60E002E01D1D2
:100BD000461EB0B286020127FF033E4316800AE09C
:100BE000DE03300CDE07F60F002E01D0461CB0B23B
:100BF0008606360C16800EE0487801280BD1206856
:100C00004030008A0E78F6008019801C0127BF0250
:100C10002668F61983530E78B6002268925B0C4E54
:100C200032401046012212035040520050409200C0
:100C30000243802632430F78BF002668F25300BF7C
:100C40000022FF20E930025500BF00206BE70000C2
:100C50008FBF000070B502460B4600BFFF20E93091
:100C6000805C012801D1022070BD0124FF20E93001
:100C7000845400BF80201840802807D15806400EB9
:100C80001C24604314462834011905E01C205843F5
:100C90001446FF3409340119012088705806400EAB
:100CA000087080201840C00948700878002814D1C6
:100CB0000D78AD001468645B204D2C402046012463
:100CC0002403604010246040E402044380252C4348
:100CD0000E78B6001568AC5328E04878002811D08B
:100CE0000D78AD001468645B154D2C40204610242F
:100CF0006040E402044380252C430E78B60015685A
:100D0000AC5313E00D78AD001468645B0B4D303DBF
:100D10002C402046012424036040E4000443802545
:100D20002C430E78B6001568AC5300BF00BF0024FA
:100D3000FF20E930845400BF002095E7BFBF0000CA
:100D4000BF8F0000FFB582B005460F461E4600204B
:100D500001907806400E1C2148432946283144184A
:100D60000498206166610020A0610120607078060F
:100D7000400E207000BFFF20E930405D012802D105
:100D8000022006B0F0BD0121FF20E930415500BF2F
:100D9000E1686069884204D9E6686069801B606127
:100DA00002E0666900206061A07A002813D1B3B226
:100DB000A28821692868009001F046FD286840302B
:100DC000008A2278D2008018801C01239B022A68A6
:100DD000D2188652A5E0217889002868405A40211F
:100DE000084000283BD06078002826D12868403091
:100DF000008A2278D2008018801D0B012A68D21840
:100E000081183E2E0DD9F202100CF206D20E002AE5
:100E100001D1421E90B282020123DB031A430A80F1
:100E20000AE0F203100CF207D20F002A01D0421C94
:100E300090B28206120C0A800EE0607801280BD175
:100E400028684030008A2278D2008018801C012354
:100E50009B022A68D2188652208901903BE0607874
:100E6000002827D128684030008A2278D2008018D4
:100E7000801C01239B022A68D21881183E2E0DD9AE
:100E8000F202100CF206D20E002A01D1421E90B2DC
:100E900082020123DB031A430A800AE0F203100CEA
:100EA000F207D20F002A01D0421C90B28206120C27
:100EB0000A800EE0607801280BD128684030008A53
:100EC0002278D2008018801C01239B022A68D21845
:100ED0008652E0880190B3B2216928680090019A97
:100EE00001F0B2FC607800280CD1217889002868D4
:100EF000405A1A4908401A49084322789200296842
:100F000088520EE0607801280BD12178890028688A
:100F1000405A124908401349084322789200296830
:100F20008852227892002968895A0C4A303211403E
:100F30000846102148402021484089020143802270
:100F4000114323789B002A68D15200BF0021FF2063
:100F5000E930415500BF002013E700008F8F0000EB
:100F6000C080000080C0000070B5044600252068E5
:100F7000403080880121C9030840884202D12046C0
:100F800001F02CFA20684030808801218902084055
:100F900088420DD1206840308088884321684031E4
:100FA0008880204600F090F80021204600F0C2F82A
:100FB000206840308088012189030840884206D19A
:100FC00020684030808888432168403188802068CC
:100FD00040308088012149030840884206D12068BA
:100FE00040308088884321684031888020684030C4
:100FF0008088012109030840884218D120684030C8
:10100000008804218843216840310880BD252D02D5
:10101000206840300580204600F06EF8206840309F
:101020008088012109038843216840318880206835
:10103000403080880121C9020840884222D12068BE
:101040004030808888432168403188802068403063
:10105000008808210843216840310880206840301A
:10106000008804210843216840310880206840300E
:101070008088012109030840000B002802D1204686
:1010800000F082F820684030808801214902084041
:10109000884209D1206840308088884321684031E7
:1010A0008880204600F03EF8206840308088FF218C
:1010B00001310840884206D120684030808888434A
:1010C00021684031888070BD70B504460125A06854
:1010D000022801D100BF01E0012500BF00BF872128
:1010E00089000859294602F061FB872189000859C7
:1010F00002F019FB70BD000010B50446A06900287D
:1011000007D007480069062188430549086101F0B6
:1011100003FD87218900085902F02BFB10BD000058
:1011200000ED00E010B5044687218900085902F05F
:1011300028FB10BD024600BFFF20E930805C01287B
:1011400001D1022070470123FF20E930835400BF02
:10115000002904D1802310684030838101E02420DD
:10116000815400BF0023FF20E930835400BF0020DA
:10117000E8E710B504468721890008592146FF3168
:10118000ED3102F022FB10BD10B504468721890025
:10119000085902F067FBA069002805D003480069E0
:1011A000062108430149086110BD000000ED00E080
:1011B000F8B50446002500260121090420680840EE
:1011C000884266D15648006A03210902084003227A
:1011D00012026168114088425BD000BF5048C0696C
:1011E0000121090708434E49C8610846C06909043E
:1011F0000840009000BF00BF4A4800680915084336
:1012000048490860FFF74EF9054606E0FFF74AF93E
:10121000401B642801D90320F8BD42480068FF2123
:10122000013108400028F1D03D48006A032109023D
:10123000884306463A48006A0121090408433849B0
:1012400008620846006A012109048843344908629B
:101250000846066202203040002811D0FFF722F92C
:10126000054607E0FFF71EF9401B2F49884201D9C8
:101270000320D1E72A48006A022108400028F1D063
:101280002748006A0321090288436168084324490A
:1012900008622078C007C00F002807D02048006BE4
:1012A00080088000A16808431D4908630221206866
:1012B0000840022808D11A48006B0321090488431A
:1012C000E168084316490863202120680840202867
:1012D00007D11348006B1021884321690843104946
:1012E00008630121490420680840884207D10C485E
:1012F000006B80218843A1690843094908630121E3
:10130000890220680840884207D10548006B4021C7
:101310008843616908430249086300207CE70000B4
:1013200000100240007000408813000070B50446B1
:101330000E460025AD480068C007C00FB0426ED20F
:10134000AA480068400840003043A84908600846A1
:101350000068C007C00FB04201D0012070BD02215B
:1013600020680840022807D1A1484068F02188433E
:10137000A16808439E4948602078C007C00F002834
:1013800048D06068012808D19948006801214904C3
:101390000840002821D10120E0E76068022808D138
:1013A00093480068012149060840002815D1012012
:1013B000D4E76068032808D18D48406B01210904F7
:1013C0000840002809D10120C8E7894800680221A7
:1013D0000840002801D10120C0E785484068800806
:1013E00080006168084382494860FFF75BF8054662
:1013F000606801280FD107E0FFF754F8401B7D49D2
:10140000884201D90320A9E7794840680C210840A7
:101410000428F1D1D6E06068022810D108E031E05C
:10142000FFF740F8401B7349884201D9032095E734
:101430006F4840680C2108400828F1D1C2E060687C
:1014400003280FD107E0FFF72DF8401B69498842B8
:1014500001D9032082E7664840680C2108400C2827
:10146000F1D1AFE007E0FFF71DF8401B614988426A
:1014700001D9032072E75E4840680C21084000282B
:10148000F1D19FE0022120680840022807D1584886
:101490004068F0218843A168084355494860207896
:1014A000C007C00F00287ED06068012808D15048CE
:1014B0000068012149040840002821D101204DE79E
:1014C0006068022808D14A4800680121490608409E
:1014D000002815D1012041E76068032808D144485D
:1014E000406B012109040840002809D1012035E79B
:1014F0003F48006802210840002801D101202DE763
:101500003B4840688008800061680843384948606B
:10151000FEF7C8FF0546606801280FD107E0FEF717
:10152000C1FF401B3349884201D9032016E73048E8
:1015300040680C2108400428F1D134E0606802289A
:101540000FD107E0FEF7AEFF401B2A49884201D9C0
:10155000032003E7264840680C2108400828F1D101
:1015600021E0606803280FD107E0FEF79BFF401BD6
:101570002049884201D90320F0E61D4840680C212B
:1015800008400C28F1D10EE007E0FEF78BFF401B6E
:101590001849884201D90320E0E6154840680C212B
:1015A00008400028F1D1114800684008400030434D
:1015B0000E49086008460068C007C00FB04201D05D
:1015C0000120CBE6042120680840042808D10848FF
:1015D0004068072109028843E168084304494860DC
:1015E0000020FEF77DFF0020B8E60000002002404A
:1015F000001002408813000010B500F013F80649EF
:101600004968F02211400909044A515CC840044964
:1016100008600846006810BD001002400847000836
:10162000CC140020F0B589B02FA001460EC9C068C7
:1016300005AC0EC4089030A001460EC9C06801ACCC
:101640000EC40490002400260027002500200090EE
:101650002D4844680C20204000283DD0042804D0A8
:10166000082805D00C2836D132E02848009036E012
:101670000F2080042040800C05A90D5C2248C06A20
:101680000007000F01A90E5C0320C00320400121C8
:101690000904884206D131461C48FEF729FD6843FB
:1016A000074613E00320C00320400321C9038842FA
:1016B00006D131461648FEF71BFD6843074605E094
:1016C00031461248FEF714FD68430746009706E0CE
:1016D0000F48009003E000BF0C48009000BF00BF1F
:1016E000009809B0F0BD00000203040506070809D0
:1016F0000A0B0C0D0E0F101001020304050607085B
:10170000090A0B0C0D0E0F100010024000127A0097
:10171000006CDC0238B5044600252078C007C00FF5
:1017200000286FD0FE4840680C21084004280CD0E7
:10173000FB4840680840082813D1F948406849032D
:1017400008400121090488420BD1F54800680121B5
:10175000490408400028E4D06068002852D10120E4
:1017600038BD00BFEE480068012109048843EC49F8
:10177000086008460068012189048843E849086038
:1017800000BFFEF78FFE054606E0FEF78BFE401B0E
:10179000642801D90320E3E7E148006801214904F6
:1017A00008400028F1D100BF6068012806D1DC485C
:1017B000006849100843DA49086032E06068002890
:1017C0000ED1D7480068012109048843D449086034
:1017D00008460068012189048843D149086020E057
:1017E000606805280FD1CE480068012189040843AC
:1017F000CB49086008460068012109040843C8492C
:1018000008600EE036E0C6480068012109048843FC
:10181000C349086008460068012189048843C0491B
:10182000086000BF6068002812D0FEF73BFE054646
:1018300006E0FEF737FE401B642801D903208FE73E
:10184000B74800680121490408400028F1D011E0A0
:10185000FEF728FE054606E0FEF724FE401B64283E
:1018600001D903207CE7AE48006801214904084003
:101870000028F1D1022120680840022862D1A8483E
:1018800040680C21084000280CD0A548406808405A
:1018900008281CD1A2484068490308400121C90317
:1018A000884214D19E48006802210840002804D0D4
:1018B000E068012801D0012052E799480068F8212A
:1018C00088432169C9000843954908603AE0E06807
:1018D000002820D092480068012108439049086000
:1018E000FEF7E0FD054606E0FEF7DCFD401B642840
:1018F00001D9032034E78A48006802210840002803
:10190000F2D087480068F82188432169C90008435C
:101910008349086016E0824800684008400080491A
:101920000860FEF7BFFD054606E0FEF7BBFD401B65
:10193000642801D9032013E7794800680221084090
:101940000028F2D1082120680840082831D1206AF7
:10195000002817D07248406A012108437049486244
:10196000FEF7A0FD054606E0FEF79CFD401B64283F
:1019700001D90320F4E66A48406A022108400028A1
:10198000F2D016E06648406A400840006449486268
:10199000FEF788FD054606E0FEF784FD401B64283F
:1019A00001D90320DCE65E48406A02210840002895
:1019B000F2D1042120680840042870D100BF5848A3
:1019C000C069890608435649C8610846C0690904C8
:1019D0000840009000BF00BF524800680915084346
:1019E00050490860FEF75EFD054606E0FEF75AFD29
:1019F000401B642801D90320B2E64A480068FF2151
:101A0000013108400028F1D000BF4548006A400875
:101A10004000434908620846006A0421884340495F
:101A2000086200BFFEF73EFD054607E0FEF73AFDFF
:101A3000401B3D49884201D9032091E63848006A9D
:101A4000022108400028F1D100BFA068012806D17A
:101A50003348006A01210843314908622CE0A0683C
:101A600000280CD12E48006A400840002C4908622A
:101A70000846006A04218843294908621CE0A068DE
:101A800005280DD12648006A04210843244908622C
:101A90000846006A01210843214908620CE034E04D
:101AA0001F48006A400840001D4908620846006A55
:101AB000042188431A49086200BFA068002812D098
:101AC000FEF7F0FC054607E0FEF7ECFC401B16496C
:101AD000884201D9032043E61148006A02210840E8
:101AE0000028F1D011E0FEF7DDFC054607E0FEF727
:101AF000D9FC401B0C49884201D9032030E6084834
:101B0000006A022108400028F1D110212068084015
:101B1000102860D1606901282DD10148406B05E093
:101B200000100240007000408813000004210843A8
:101B30008E4948630846406B012108438B4948633E
:101B4000FEF7B0FC054606E0FEF7ACFC401B64283F
:101B500001D9032004E68548406B02210840002893
:101B6000F2D08248406BF8218843A169C90008433C
:101B70007E4948632FE06069401D00280FD17B48F3
:101B8000406B04218843794948630846406BF8213B
:101B90008843A169C9000843744948631BE073483E
:101BA000406B04210843714948630846406B400874
:101BB00040004863FEF776FC054606E0FEF772FC3F
:101BC000401B642801D90320CAE56848406B022104
:101BD00008400028F2D1202120680840202852D156
:101BE000624840680C2108400C280AD05F484068D1
:101BF0000840082811D15D484068490308408842E0
:101C00000BD15A48406B01210904084000283AD002
:101C1000E069012837D00120A2E5E069002819D049
:101C20005248406B01210904084350494863FEF7BC
:101C300039FC054606E0FEF735FC401B642801D957
:101C400003208DE54948406B012109040840002824
:101C5000F1D018E04548406B01210904884343490D
:101C60004863FEF71FFC054606E0FEF71BFC401B21
:101C7000642801D9032073E53C48406B0121090425
:101C800008400028F1D1606A00286CD037484068CD
:101C90000C210840082864D0606A022847D13348E4
:101CA000006801210906884330490860FEF7FAFB05
:101CB000054606E0FEF7F6FB401B642801D9032029
:101CC0004EE52A4800680121490608400028F1D164
:101CD00000BF2648C06A00090001216B0843234960
:101CE000C862A16AE06A0843204949687B22D2039E
:101CF000914308431D49486000BF08460068012120
:101D00000906084319490860FEF7CCFB054606E0C2
:101D1000FEF7C8FB401B642801D9032020E51348C7
:101D200000680121490608400028F1D01BE00F4857
:101D300000680121090688430C490860FEF7B2FBE0
:101D4000054606E0FEF7AEFB401B642801D90320E0
:101D500006E5064800680121490608400028F1D13F
:101D600001E00120FCE40020FAE400000010024041
:101D70007047000030B50346002400BF5C20C05C03
:101D8000012801D1022030BD01255C20C55400BFCF
:101D9000002901D0002A01D1012450E05D20C05C5F
:101DA000012801D002244AE003255D20C55400200B
:101DB000186699639A87DA87186400254420C5520B
:101DC0004620C5520020D86407252D02D868A842B5
:101DD00002D91E48186501E01D4818650125ED036C
:101DE0009868A84205D1186800686D1028431D68DE
:101DF000286001256D03986AA8420ED100BF1868BB
:101E00000068144D28401D68286018680068012586
:101E10006D0328431D68286000BF1868406880254E
:101E200028431D68686018680068402528404028DD
:101E300004D01868006828431D68286000BF00BFF0
:101E400000255C20C55400BF20469CE729290008D6
:101E500065290008FFDF000070470000042806D154
:101E60000649096904221143044A116105E0034946
:101E7000096904229143014A1161704700E000E0C2
:101E80007047000070B504462546681E094988421F
:101E900001D901200CE0681E074948610321081F91
:101EA00000F060FA002004498861072008610020E2
:101EB00070BD0000FFFFFF0000E000E010B5FFF77D
:101EC000DFFF10BD7047704701460868C0680122F7
:101ED00010430A68D06008680068012210430A684D
:101EE000106000207047000001460868C068400884
:101EF00040000A68D06000BF0868006A094A1040C4
:101F000000280BD10868006A92101040002805D103
:101F100008680068400840000A68106000BF0020A0
:101F20007047000011110000704710B5044620688A
:101F3000006902210840400800281CD02068C068C1
:101F400008404008002816D0481F21680861012079
:101F50002076206880698007800F002803D0204603
:101F6000FFF7E2FF05E0204600F0C3F8204600F04E
:101F70004AF9002020762068006904210840800882
:101F800000281DD02068C06808408008002817D0AD
:101F9000C8432168086102202076206880690321F7
:101FA00009020840002803D02046FFF7BDFF05E0E6
:101FB000204600F09EF8204600F025F9002020760B
:101FC0002068006908210840C00800281CD020684B
:101FD000C0680840C008002816D0C84321680861BE
:101FE000042020762068C0698007800F002803D075
:101FF0002046FFF799FF05E0204600F07AF82046DA
:1020000000F001F9002020762068006910210840C6
:10201000000900281DD02068C06808400009002879
:1020200017D0C84321680861082020762068C0695D
:10203000032109020840002803D02046FFF774FF5F
:1020400005E0204600F055F8204600F0DCF80020BE
:10205000207620680069C007C00F01214840484031
:1020600000280CD02068C06808404840484000283C
:1020700005D0C81E21680861204600F0F9F82068E4
:10208000006980210840C00900280BD02068C06882
:102090000840C009002805D0C843216808612046CF
:1020A000FFF710FF206800694021084080090028E0
:1020B0000BD02068C06808408009002805D0C843BC
:1020C00021680861204600F0D4F8206800692021CA
:1020D0000840400900280BD02068C068084040092B
:1020E000002805D0C843216808612046FFF7EBFEB1
:1020F00010BD704770B504460D46164600BF382027
:10210000005D012801D1022070BD01213820015558
:1021100000BF022139200155002E06D0042E1BD00D
:10212000082E33D00C2E62D147E02946206800F0FB
:10213000B5FD20688069082108432168886120680E
:102140008069042188432168886120688069296941
:102150000843216888614BE02946206800F0F8FDBB
:10216000206880690121C9020843216888612068CC
:10217000806901218902884321688861206880691B
:102180002969090208432168886131E029462068ED
:1021900000F042FE2068C069082108432168C86138
:1021A0002068C069042188432168C8612068C0692B
:1021B000296908432168C8611AE02946206800F0AF
:1021C0008DFE2068C0690121C90208432168C861E9
:1021D0002068C0690121890288432168C86120689C
:1021E000C0692969090208432168C86100E000BF8D
:1021F00000BF01213920015500BF002138200155C1
:1022000000BF002080E7704730B504460D4601222C
:102210002946206800F034FD1149206888420BD01F
:1022200010492068884207D00F492068884203D0AF
:102230000E492068884201D1012000E000200028DA
:1022400006D02068406C0121C90308432168486416
:10225000206800680121084321680860002030BD23
:10226000002C014000400140004401400048014072
:1022700070477047FFB581B004460D461646692089
:10228000005D012803D06920005D222867D1002D60
:1022900001D0002E02D1012005B0F0BD00BF6820A2
:1022A000005D012801D10220F6E7012168200155D7
:1022B00000BF0020E0666920005D222803D13221A2
:1022C0006920015502E01221692001555020065372
:1022D0005220065323E05220005B401E81B2522060
:1022E0000153002280212046049B00F096FE002826
:1022F00001D00320D0E701210903A06888420AD158
:102300002069002807D12F463888C005C00D2168F4
:102310000885AD1C03E028786D1C216808855220D3
:10232000005B0028D7DC002240212046049B00F0FF
:1023300074FE002801D00320AEE76920005D32283A
:1023400003D122216920015502E0012169200155B4
:1023500000BF00216820015500BF00209CE702203B
:102360009AE7704710B5002819DA1A4A03071B0FBD
:10237000083B9B089B00D2588307DC0EFF23A34039
:102380009A438B071B0E8407E40EA3401A43114B9C
:102390000407240F083CA408A4001A5118E00E4AB0
:1023A00003231B02D21883089B00D2588307DC0E3C
:1023B000FF23A3409A438B071B0E8407E40EA34020
:1023C0001A43054B032424021B198408A4001A5144
:1023D00010BD00001CED00E000E100E0FEB5054688
:1023E00000270020019011E2684600890607360F99
:1023F000002E7DD16846008910210840002830D188
:1024000028680088FB490840296808802C46283441
:1024100028684030008A2178C9004018801C0122B9
:10242000920229688918405A8005800DA061A1692F
:1024300020694018206100212846FEF792F82420E8
:10244000405D0028CFDD60690028CCD12420405DAC
:10245000802108432968403188810021242041558A
:10246000D4E12C46FF34093428680188019168467C
:1024700080880121C9020840002823D02868403004
:10248000008A2178C9004018801D01229202296823
:102490008918405A8005800DA061218B8BB2A288DB
:1024A0002146E431286800F0BCF92868008840041F
:1024B000400CD04980310840296808802846FEF742
:1024C00058FEA3E1684680880121C903084000281E
:1024D00089D0286800884004400CC64980310840F3
:1024E0002968088028684030008A2178C90000E007
:1024F00056E04018801D0122920229688918405A2E
:102500008005800DA061A06900280BD0218B8BB2C3
:10251000A28821690091286800F083F9A1692069E7
:102520004018206100212846FEF72BF8286840302B
:10253000008A801D01239B022A68D2188118E26854
:102540003E2A0FD9E268D202100C227BD206D20EAC
:10255000002A01D1421E90B282020123DB031A43FA
:102560000A800CE0E268D203100C227BD207D20F63
:10257000002A01D0421C90B28206120C0A802968FF
:1025800009889D4A11400846012109034840490035
:10259000484089000143802211432A68118035E1B7
:1025A000B1002868415A0191684680880121C90319
:1025B000084000287DD0B1002868405A4004400CF3
:1025C0008C4980310840B200296888521C20704331
:1025D0002946FF3109314418A07A002816D128680D
:1025E0004030008A2178C9004018801D01229202E3
:1025F00029688918405A8705BF0D002F49D0A28845
:1026000021693B46286800F00CF942E021788900F6
:102610002868405A012189030840002816D02868FC
:102620004030008A2178C9004018801C01229202A3
:1026300029688918405A8705BF0D002F1CD0E288F1
:1026400021693B46286800F0ECF815E02868403026
:10265000008A2178C9004018801D01229202296851
:102660008918405A8705BF0D002F05D0228921699E
:102670003B46286800F0D5F8217889002868405A40
:102680005C49803108405D490843227892002968FE
:102690008852A069C019A0612069C01920616069D1
:1026A000002802D0E068B84204D921782846FDF716
:1026B00068FF05E02178284663692269FEF718FA69
:1026C000684680888021084000287DD01C20704307
:1026D000294628314418B1002868405A4549084025
:1026E000B20029688852A07A00281AD128684030A0
:1026F000008A2178C9004018801C012292022968B2
:102700008918405A8005800DA061A069002853D027
:10271000208B83B2A28821692868009000F094F889
:102720004AE0217889002868405A40210840002862
:102730001AD028684030008A2178C9004018801CCF
:102740000122920229688918405A8005800DA061F3
:10275000A069002822D0208B83B2E28821692868F2
:10276000009000F071F819E028684030008A217864
:10277000C9004018801D0122920229688918405A18
:102780008005800DA061A069002807D0208B83B24E
:10279000228921692868009000F056F82178890084
:1027A0002868405A1349803108401349F1310843E1
:1027B000227892002968885228684030008A21785F
:1027C000C9004018801C00E020E001229202296824
:1027D0008918405A8005800DA061A16920694018C0
:1027E0002061606900280BD121782846FDF7B9FEE9
:1027F0000CE000000F8F00008FBF0000C0800000C1
:102800002178284663692269FEF79CFA28684030DF
:10281000808802900121C9030840002800D0E3E528
:10282000FEBDF8B55E1C7610009616180127BF0293
:10283000F519009C05E02E880E80AD1C491C491C32
:10284000641E002CF7D1F8BDFFB581B0049E761C44
:1028500076100096039E36180127BF02F419009ADD
:1028600008E00B78491C0E7835021D432580A41C16
:10287000491C521E002AF4D105B0F0BD10B5024823
:1028800001F0AFFD10BD0000481B002038B5044624
:1028900020684068A0218843216848603221204692
:1028A00000F020F8002803D02021206E0843206685
:1028B000A068002808D100BF2068C0680090206888
:1028C0008068009000BF00BF01215D200155206E8F
:1028D000002803D02046FFF74BFA02E02046FFF71E
:1028E000BBFA38BD70B504460D462B4600220321C5
:1028F000C902204600F054F8002805D02021206E9F
:1029000008432066032070BD2B460022802120460C
:1029100000F0A6F8002805D02021206E084320668C
:102920000320F0E70020EEE710B50446A06B008816
:102930002168C860A06B801CA063E08F401EE08708
:10294000E08F00280DD101214903A06A884205D1FA
:102950002068006849100843216808602046FFF796
:1029600095FF10BD10B50446A16B481CA063087804
:1029700021680873E08F401EE087E08F00280DD1AA
:1029800001214903A06A884205D1206800684910E6
:102990000843216808602046FFF778FF10BD00005B
:1029A000FEB504460E4617461D46FDF77BFD00901A
:1029B0004DE003204002864206D1002F04D120685A
:1029C000017B019168460079681C00283FD0002DEA
:1029D00005D0FDF767FD0099401AA84237D320685B
:1029E0004068E021884321684860FF210531606824
:1029F00088420ED10121C903A068884203D0491141
:102A0000A068884205D12068006840218843216879
:102A1000086001214903A06A88420ED100BF2068E6
:102A200000680E490840216808602068006801219C
:102A3000490308432168086000BF01215D2001555A
:102A400000BF00215C20015500BF0320FEBD2068AF
:102A500080683040B842ACD10020F7E7FFDF0000CB
:102A6000F8B504460E4617461D46FDF71BFD0090BF
:102A700042E0681C00283FD0002D05D0FDF712FD74
:102A80000099401AA84237D320684068E021884363
:102A900021684860FF210531606888420ED101211C
:102AA000C903A068884203D04911A068884205D1B3
:102AB000206800684021884321680860012149039B
:102AC000A06A88420ED100BF206800680E49084005
:102AD00021680860206800680121490308432168D3
:102AE000086000BF01215D20015500BF00215C206E
:102AF000015500BF0320F8BD206880683040B8420F
:102B0000B7D10020F7E70000FFDF000010B5FDF7A8
:102B1000CFFCFFF7D3F910BD10B500F001F810BDE0
:102B200030B599B030200C900120139011901020F6
:102B30001290002015900CA8FEF7ECFD01200890E3
:102B40000320099000200A900B90012108A8FEF7AD
:102B5000EDFB104801900020039004901020059098
:102B60000020079001A8FEF723FBFEF745FD054670
:102B70007D21C900FDF7BCFA0446FFF783F9042064
:102B8000FFF76CF900221146501EFDF7E1FC19B069
:102B900030BD0000230002001948006801210843ED
:102BA00017490860084640681649084014494860BB
:102BB0000846006814490840114908600846006842
:102BC0000121890488430E490860084640683F2176
:102BD000090488430A4948600846C06A00090001A0
:102BE000C8620846006B0949084005490863084661
:102BF000406B400840004863002088607047000038
:102C0000001002400CB8FF08FFFFF6FE2CFEFCFF90
:102C100010B5012210210920C006FDF73CFC104828
:102C200001F048FB0F4801F045FB0F4801F042FB63
:102C30000E4801F03FFB0E4801F03BF90D48FFF74D
:102C400074F904210C48FDF722FC0C4801F0EEFC5D
:102C5000002210210920C006FDF71DFC10BD000058
:102C6000C4230020A02300207C2300205823002020
:102C700080250020B8250020000C00485C2500209D
:102C800030B5002301248C402346046A9C4304622F
:102C9000046A15468D402C43046230BD70B5002493
:102CA00000220023056A6D086D000562026A436810
:102CB000846970262546B5432C46A408A4000D68F7
:102CC0002C4302261546B5432A468D682A431C4DDF
:102CD000A84200D10BE01B4DA84200D107E01A4DDD
:102CE000A84200D103E0194DA8420AD100BF08262E
:102CF0001546B5432A46CD682A4304261546B543F2
:102D00002A460F4DA84208D00E4DA84205D00E4DC0
:102D1000A84202D00D4DA8420CD1FF2601361D4617
:102D2000B5432B4676001D46B5432B464D692B43D4
:102D30008D692B43436084614D684563026270BDB9
:102D4000002C014000400140004401400048014087
:102D500070B5002400220023056A1026B5430562E1
:102D6000026A43688469072636032546B5432C4624
:102D7000032636022546B5432C460D682D022C430A
:102D800020261546B5432A468D682D012A431E4D3F
:102D9000A84200D10BE01D4DA84200D100BF1C4D40
:102DA000A84200D100BF1B4DA8420BD10AE08026EB
:102DB0001546B5432A46CD682D012A4340261546BF
:102DC000B5432A46104DA84208D0104DA84205D060
:102DD0000F4DA84202D00F4DA8420ED10126B602D7
:102DE0001D46B5432B4676001D46B5432B464D691F
:102DF000AD002B438D69AD002B43436084614D686A
:102E00008563026270BD0000002C0140004001405B
:102E1000004401400048014070B500240022002316
:102E2000056AFF260136B5430562026A4368C46934
:102E300070262546B5432C46A408A4000D682C43F3
:102E4000012676021546B5432A468D682D022A438F
:102E50001E4DA84200D10BE01D4DA84200D100BF7D
:102E60001C4DA84200D100BF1B4DA8420CD10BE065
:102E70000126F6021546B5432A46CD682D022A439F
:102E800076101546B5432A46104DA84208D0104D7D
:102E9000A84205D00F4DA84202D00F4DA8420ED136
:102EA000012636031D46B5432B4676001D46B54325
:102EB0002B464D692D012B438D692D012B4343601A
:102EC000C4614D68C563026270BD0000002C014002
:102ED00000400140004401400048014070B500221C
:102EE00000230024056A01263603B5430562036A00
:102EF0004468C269072636031546B5432A460326A9
:102F000036021546B5432A460D682D022A4301268E
:102F100076031D46B5432B468D682D032B430D4D7F
:102F2000A84208D00C4DA84205D00C4DA84202D0B2
:102F30000B4DA84207D10126B6032546B5432C46C2
:102F40004D69AD012C434460C2614D680564036264
:102F500070BD0000002C01400040014000440140D1
:102F60000048014010B504462068006840218843AD
:102F7000216808606920005D322803D12221692080
:102F8000015508E02068806840084000216888609A
:102F90000121692001552046FFF7E3F9002010BD0B
:102FA00001466920405C122803D06920405C322829
:102FB00031D15220405A00280DD108680068802382
:102FC00098430B68186008680068402318430B6832
:102FD00018600020704701231B03886898420CD1B9
:102FE0000869002809D1CA6C1088C005C00D0B689B
:102FF0001885C86C801CC86405E0CB6C581CC8647C
:1030000018780B6818855220405A401E83B252200F
:1030100043520020DEE70220DCE7FFB581B0044622
:103020000E461D46FDF73EFA07460398002839D1A3
:103030002DE0681C00282AD0002D04D0FDF732FABC
:10304000C01BA84223D920680068802188432168DA
:103050000860206800682021884321680860206893
:103060000068FF210131884321680860206880687A
:10307000400840002168886001216920015500BF97
:1030800000216820015500BF032005B0F0BD206875
:10309000C0693040B04201D1012000E0002000288A
:1030A000C7D037E02CE0681C002829D0002D04D0C0
:1030B000FDF7F8F9C01BA84222D9206800688021DA
:1030C00088432168086020680068202188432168BF
:1030D000086020680068FF2101318843216808608A
:1030E00020688068400840002168886001216920CC
:1030F000015500BF00216820015500BF0320C4E72F
:103100002068C0693040B04201D1012000E00020B9
:103110000028C8D10020B8E710B50548FEF7E4FE46
:10312000044801F01FFA0248FEF7CEFE10BD000071
:10313000B82500205C25002010B50648FEF7D4FE17
:10314000054801F09FF8054801F00CFA0148FEF728
:10315000BBFE10BDB8250020A0230020682500205C
:10316000704770B504464320C00005590059002837
:1031700015D0207C002808D1812080004259031FEF
:103180000121204600F0C0FA07E08120800042596A
:1031900040230121204600F0B7FA002070BD022034
:1031A000FCE702464320C000835881208000C150C4
:1031B0000020704710B503464320C000C45841208A
:1031C000C0000151212000010251002010BD70B546
:1031D00005464320C00044594059002816D0852098
:1031E0008000005900280FD1012185208000015165
:1031F000001F005B83B24120C00002598121284694
:1032000000F03BFB002070BD0120FCE70220FAE744
:1032100070B504460D468520800000592946426855
:1032200020469047002070BD70B504460D46FF2033
:10323000FD30005D022802D0032813D100E000BF5A
:10324000688801280DD1002181208000015185204E
:10325000800000592946826820469047204600F0A9
:103260004CF804E02946204600F01BF800BF00BFE0
:1032700070BD70B506460C4615462B462246002109
:10328000304600F041FA002070BD70B506460C468D
:1032900015462B4622460021304600F0EEFA00206B
:1032A00070BD70B504460D468021204600F0CFFA6F
:1032B0000021204600F0CBFA70BD10B50446052170
:1032C000FF20F530015100231A461946204600F030
:1032D0001BFA002010BD70B504460E4615460221AB
:1032E000FF20F5300151A561E5612B4632460021F2
:1032F000204600F0C2FA002070BD10B5044604213B
:10330000FF20F530015100231A461946204600F0EF
:10331000B4FA002010BD70B504460D46E8880128B7
:1033200004D029462046FFF7BCFF1CE0FF20FD30FB
:10333000005D022802D003280FD108E00020A06021
:103340000122214608312046FFF7C5FF0AE001228D
:10335000211D2046FFF7BFFF04E029462046FFF766
:10336000A0FF00BF00BF70BDF8B504460E467088D0
:103370000012030000F09AFC088C050E258C8C6A64
:103380007A8C207C2121090109590A6869469047F5
:10339000054682E0207C002809D185208000005964
:1033A000816A6846884705460221697008E08520E1
:1033B00080000059C16A6846884705460221697045
:1033C0006BE0B078030000F071FC06040D161F28B6
:1033D000313A207C2121090109594A686946904700
:1033E000054631E0207C2121090109598A68694696
:1033F0009047054628E0207C212109010959CA6827
:103400006946904705461FE0207C212109010959A2
:103410000A6969469047054616E0207C212109018A
:1034200009594A696946904705460DE0207C2121EB
:10343000090109598A6969469047054604E0314601
:103440002046FFF72EFFF8BD00BF26E0207C0028B5
:1034500007D1852080000059416B684688470546A2
:103460001BE031462046FFF71CFFECE7207C0028DC
:1034700009D1852080000059016B684688470546C0
:103480000721697009E031462046FFF70AFFDAE7B5
:1034900031462046FFF705FFD5E700BF68460088A4
:1034A000002812D0F08800280FD0F08869460988DB
:1034B000884202DD6846008800E0F0880090694696
:1034C0000A8829462046FFF706FF00BFBBE770B514
:1034D00004460D46FF20FD30005D022802D003287F
:1034E00013D100E000BF0120E0608120800000597E
:1034F000002803D00221E0680843E0600222214650
:103500000C312046FFF7E7FE04E029462046FFF78E
:10351000C8FE00BF00BF70BD70B504460D46112146
:10352000490108592946FDF73DF8002070BDF8B55E
:1035300004460E461746002E5CD125461435FF2062
:10354000F5300059022848D1E968A868884210D9A6
:10355000E968A868401AA860288982B239462046DE
:10356000FFF793FE00231A461946204600F0CCF8D8
:1035700033E0E9686868FCF7BBFD002919D1E96808
:103580006868884215D3FF20F93000596968814284
:103590000FD2002211462046FFF777FE0021FF20C0
:1035A000F930015100231A461946204600F0ACF8C4
:1035B00013E0852080000059C06800280AD0FF2051
:1035C000FD30005D032805D1852080000059C168C9
:1035D000204688472046FFF770FE01204002005D2C
:1035E000012819D1204600F06BF90021012040028A
:1035F000015511E0852080000059406900280BD05A
:10360000FF20FD30005D032806D185208000005991
:1036100031464269204690470020F8BDF8B505467E
:103620000E461746002E30D1EC1DFD34FF20F5303C
:10363000405903283BD1E168A068884210D9E1686D
:10364000A068401AA060E168A068884201D2A06822
:1036500000E0E06882B239462846FFF70AFE26E01D
:10366000852080004059006900280AD0FF20FD30E5
:10367000405D032805D18520800040590169284616
:1036800088472846FFF739FE11E085208000405921
:10369000806900280BD0FF20FD30405D032806D153
:1036A0008520800040593146826928469047002095
:1036B000F8BD10B502461120400183588020084013
:1036C000802808D14806400E1C2460431C4628343C
:1036D0000019807810BD4806400E1C2460431C462B
:1036E000FF34093400198078F4E7F8B504460F4632
:1036F00015461E461121490108592B4632463946C6
:10370000FCF7E0FF0020F8BDF8B504460D4616466C
:103710001F461121490108593B4632462946FDF70B
:10372000E7F90020F8BD10B50446402300221146F9
:103730002046FFF7DAFF4021FF20113001514023DE
:10374000002280212046FFF7D0FF40212162012185
:10375000FF20FD3001554320C0000059002806D04D
:10376000217985208000005942682046904700203A
:1037700010BD0146FF20FE30425C401E4254002036
:10378000704710B50446FF20FD30005D03280BD1C3
:10379000852080000059C069002805D08520800060
:1037A0000059C16920468847002010BD02461174A7
:1037B0000020704770B504460D4611214901085993
:1037C0002946FDF7B7FC002070BD70B504460D46D4
:1037D00029464120C000201800F05EF80121FF209A
:1037E000F53001514120C0002018C188FF20F93078
:1037F00001514120C000005DC006C00E002804D069
:10380000012809D0022815D10DE04120C00021185F
:10381000204600F028F917E04120C000211820467A
:1038200000F00FFA10E04120C0002118204600F0FF
:1038300053F909E04120C000005D8022104001469C
:10384000204600F004F800BF00BF002070BD70B536
:1038500004460D461121490108592946FDF7FAF998
:10386000002070BD0146FF20FD30425C401C4254E8
:103870000422401E425400207047F8B504460D460D
:1038800016461F461121490108593B463246294632
:10389000FDF758FA0020F8BD0A7802704A784270A5
:1038A0008B78CA7812029A1842800B794A791202F0
:1038B0009A1882808B79CA7912029A18C28070474E
:1038C00001460020704770B504460D46A8880028C0
:1038D00025D1E888002822D1A8784606760EFF2058
:1038E000FD30005D032804D129462046FFF7D9FCAE
:1038F00019E0FF20FF30065531462046FFF75AFFFA
:103900002046FFF7FAFC002E04D00221FF20FD30F4
:10391000015508E00121FF20FD30015503E0294653
:103920002046FFF7BEFC70BD70B504460D4602266A
:10393000852080000059002809D08520800000598A
:103940002946026820469047002800D100263046CC
:1039500070BD000070B504460D46A8783649087061
:1039600008460078012804DD29462046FFF799FC27
:1039700060E0FF20FD30005D022802D0032853D113
:103980001EE02D480078002816D02B480078606093
:103990000321FF20FD300155274801782046FFF71D
:1039A000C3FF022804D129462046FFF77AFC70BDE8
:1039B0002046FFF7A2FC02E02046FFF79EFC38E01D
:1039C0001D48007800280FD10221FF20FD3001554D
:1039D000194800786060184801782046FFF718FC05
:1039E0002046FFF78AFC1EE0134909786068884288
:1039F00016D021792046FFF70BFC0F480078606055
:103A00000D4801782046FFF78FFF022804D1294690
:103A10002046FFF746FCCAE72046FFF76EFC02E0AF
:103A20002046FFF76AFC04E029462046FFF739FCF0
:103A300000BF00BF00BFBAE70000002070B5044619
:103A40000D46688801280DD1012181208000015197
:103A500085208000005929468268204690472046EC
:103A6000FFF74BFC70BD70B505460C46002660782C
:103A7000030000F01BF90A1A24291F290B06291537
:103A8000102921462846FFF76FFC22E021462846F0
:103A9000FFF719FF1DE021462846FFF75BFF18E0FE
:103AA00021462846FFF737FC13E021462846FFF75A
:103AB0000EFD0EE021462846FFF7C0FF09E0214633
:103AC0002846FFF7B1FB04E021462846FFF7E9FB53
:103AD00000BF00BF304670BDF8B505460E46002059
:103AE00000903479307860210840202808D1852062
:103AF0008000405931468268284690470020F8BD32
:103B0000707800285FD001282FD0032876D1FF20BD
:103B1000FD30405D022802D003281FD108E0002CB0
:103B200005D0802C03D021462846FFF790FE1AE0EE
:103B30007088002807D1002C05D0802C03D02146A6
:103B40002846FFF784FE8520800040593146826870
:103B5000284690472846FFF7D0FB04E03146284628
:103B6000FFF79FFB00BF00BF68E0FF20FD30405D16
:103B7000022802D003281FD108E0002C05D0802C99
:103B800003D021462846FFF762FE1AE0708800281D
:103B900011D16006400E00280AD021462846FFF7C2
:103BA000BBFC8520800040593146826828469047FA
:103BB0002846FFF7A2FB04E031462846FFF771FBD9
:103BC00000BF00BF3AE0FF20FD30405D022802D078
:103BD00003282BD108E06006400E002803D02146C0
:103BE0002846FFF734FE26E080202040802806D1BA
:103BF0006006410D28461430081805E01DE06006F7
:103C0000410DE81DFD300818074621462846FFF7FC
:103C100050FD002802D00120386001E0002038600B
:103C2000022239462846FFF756FB04E03146284673
:103C3000FFF737FB00BF00BF00E000BF00BF0098E8
:103C40005DE770B504460D460026FF20FD30005D9F
:103C5000032817D1287901280FDC8520800000591E
:103C60002946826820469047E888002809D1002E1E
:103C700007D12046FFF741FB03E029462046FFF726
:103C800010FB04E029462046FFF70BFB00BF00BFF6
:103C9000002070BD10B5034800F0F4FA0248FDF7AB
:103CA00063F910BD7C2300200817002030B474464F
:103CB000641E2578641CAB4204D3635D5B00E3188B
:103CC00030BC18471D46F8E702E008C8121F08C1BB
:103CD000002AFAD170477047002001E001C1121F8D
:103CE000002AFBD1704700000EB5FCF7E9FBFEF798
:103CF00017FF00F0C1F90022FF2101310920C006A1
:103D0000FCF7C9FB012211021A48FCF7C4FB01228F
:103D100040211848FCF7BFFB012280211548FCF721
:103D2000BAFB012251021348FCF7B5FB12487D2172
:103D30000901124A14230092019102902022104995
:103D4000104800F0A9F81420FCF751FA00240FE005
:103D500020210B4800F02BF80446012C05D10A4A1B
:103D600001020920C00600F011F8FA20FCF73FFA22
:103D7000EEE7000000080048D1460008ED460008C4
:103D800000100048802500208813000037B5044645
:103D90000D46012229462046FCF77DFB0298FCF7E0
:103DA00026FA002229462046FCF775FB3EBDF8B5F1
:103DB00004460D46002629462046FCF75FFB0746D1
:103DC000002F01D1012600E000263046F8BD00009A
:103DD00070B505462C68206800688021084080285E
:103DE00001D1206840682068006804210840042848
:103DF0001AD1206840680840042815D1606C102151
:103E00000840002803D1606C4901084360642068C1
:103E1000006C81B21E480268006818301C4B1860A4
:103E20001182042021680860206800680821084089
:103E300008280AD1206840680840082805D115489C
:103E40001349086008202168086020680068102174
:103E5000084010281AD1206840680840102815D161
:103E6000606B012805D02068C068C007C00F00281B
:103E700009D0A06C02210843A064102021680860CA
:103E80002046FCF7B3F910202168086070BD0000DF
:103E9000C8140020F0130020F0B5044605ADE0CDB5
:103EA0002160A2800020A071E360A56126616761A6
:103EB000F0BD10B50446A079002806D0012810D026
:103EC000022823D0032842D12CE020680069A18871
:103ED0000840002804D1FCF7E5FAA0600120A07199
:103EE00035E020680069A1880840002802D0002041
:103EF000A0710AE0FCF7D6FA2269A1688918884205
:103F000003D9606980470220A07120E02068006921
:103F1000A1880840002804D0FCF7C4FAA060032060
:103F2000A07114E020680069A188084000280BD027
:103F3000FCF7B8FAE268A1688918884206D9A06936
:103F400080470020A07101E00220A07100BF00BFE7
:103F5000002010BD0346042B16D008DC002B0FD028
:103F6000012B0ED0022B0DD0032B12D10BE0202BF6
:103F70000BD0212B0AD0222B09D0232B09D107E00B
:103F800008E007E006E005E004E003E002E001E00D
:103F900000E000BF00BF0020704700000020014982
:103FA000086070472800002002480068FF30E130B8
:103FB000007F70472800002010B50A480A490860B1
:103FC00000220A4908480068FFF7F4F80849064843
:103FD0000068FFF7E6F804480068FFF7C2F8002021
:103FE00010BD0000E414002028000020581F00200D
:103FF000581B002070B504460D4629888AB207492F
:104000007D23DB0008682146FEF734F90448006888
:10401000FFF7A7F8064670B270BD00005C250020CF
:104020002800002070B504460D46002609480068A7
:10403000002801D1022070BD2A46214605480068AB
:10404000FFF7B8F803480068FFF7C1F806463046A6
:10405000F1E700002800002010B50446054840693B
:104060002040002804D0034844612046FCF7CCF8E7
:1040700010BD00000004014000B587B000BF7948C2
:10408000406901214905084376494861084640696D
:10409000012149050840019000BF00BF00BF7148E1
:1040A0004069C91008436F494861084640690121C9
:1040B00089040840019000BF00BF00BF6948406903
:1040C000890008436749486108464069012109059C
:1040D0000840019000BF00BF00BF62484069C9109E
:1040E0000843604948610846406901214904084085
:1040F000019000BF00BF00BF5A48406989000843D3
:1041000058494861084640690121C90408400190A6
:1041100000BF00BF00BF53484069C9000843514970
:10412000486108464069012189050840019000BFA7
:1041300000BF3020029001200390002004900590E1
:1041400002A90920C006FCF79BF80C200290012070
:10415000039000200490059002A94348FCF790F8D2
:10416000424802900120039000200490059002A98B
:104170003F48FCF785F8B02002900020039004909F
:1041800002A93948FCF77CF8402002903948039096
:104190000020049002A93448FCF772F80420029031
:1041A000354803900020049002A93448FCF768F8D1
:1041B000032040020290012003900020049005900B
:1041C00002A90920C006FCF75BF8012080020290DA
:1041D0000120039000200490059002A92748FCF7D5
:1041E0004FF81F2080020290234803900020049083
:1041F00002A91F48FCF744F8022002901120039006
:1042000000200490059002A91D48FCF739F8FF2012
:10421000013002901120039000200490059002A923
:104220000920C006FCF72CF80F2080010290112015
:10423000039000200490059002A91148FCF720F893
:10424000002211460620FCF783F90620FCF774F9DA
:10425000002211460720FCF77BF90720FCF76CF9D8
:1042600007B000BD00100240001000488681000029
:10427000000C00480000311000001110001400482C
:104280000008004810B5044600230A2202492046CF
:1042900000F074F810BD0000C413002010B50446EF
:1042A00001237D22D2000249204600F067F810BDAC
:1042B0003C00002010B50446002C01D1022010BDA6
:1042C0002068002801D10320F9E72069002801D1E6
:1042D0000120F4E7A169E06988420FD30020E06182
:1042E0002020005D002802D12061A061E7E760691D
:1042F000002803D06069206100206061E169481CEA
:10430000E06188002169085861684860204607C854
:10431000FDF7F0FEA1682068FDF776FF0020CEE7EC
:1043200010B504460123FA220249204600F026F87F
:1043300010BD0000DC0F002010B50446002C01D198
:10434000022010BD2068002801D10320F9E7E068B1
:10435000FDF7CAFD002061684860204607C8FDF7E8
:10436000C9FE002020616061E061A0610021202081
:104370000155E068FDF7A8FD0020E2E710B504460E
:10438000002C02D02068002801D1022010BD21613C
:10439000A2610020E061202003550020F6E70246DC
:1043A0000B46114605E00878984201D1084670474F
:1043B0001031002902D008780028F4DC0020F6E74C
:1043C00002460B46114605E00878984201D108469E
:1043D00070471031002902D008780028F4DC002052
:1043E000F6E7F8B5064634682068476820688568AF
:1043F0004020284000280BD1E807C00F002807D034
:1044000040203840002803D0304600F057F8F8BD6F
:1044100002202840002807D080203840002803D000
:104420002046216D8847F2E7FF20613028400028B0
:1044300042D040202840002811D05D20005D032894
:104440000CD00421206E0843206600BF2068C0689D
:10445000009020688068009000BF00E0D7E720202F
:10446000284000280FD00121206E0843206600BF9D
:104470002068806800902068006840218843216897
:10448000086000BF00BFFF2001302840002809D08D
:104490000821206E0843206600BF206880680090D5
:1044A00000BF00BF20684068E02188432168486061
:1044B00001215D200155AAE700BFA8E738B50446F1
:1044C00020680068C068C0B20090207B002804D03B
:1044D00001281FD0022840D13EE068460078F8222B
:1044E000104001461E48FFF76BFF606060680028BF
:1044F00000D138BD6068C068002803D06068C1681A
:1045000068468847012269462068FDF733FC012090
:10451000207322E06A461278E0231A40114662684E
:104520009068FFF73CFF6168486060684068002859
:1045300001D12073DDE760684068002804D060681E
:104540004068416868468847012269462068FDF74F
:1045500011FC0220207300E000BF00BF00BFC8E7CD
:1045600008000020F8B505462C68A87A2168C969BA
:104570000907090F0843A872002807D00F202168F7
:10458000086200BF00BF0020A872F8BD2068C069A3
:1045900020210840002828D0206800680840002812
:1045A00023D000BF686829685C235A5A0B689B8C2B
:1045B000D6B2334047687E1C46600668F3550669EC
:1045C0004368B34201D300234360C3685B1CC360EC
:1045D0000669B34202D3144B838200E000BF206817
:1045E000806908210843216888612068C0698021AA
:1045F0000840002807D0206800680840002802D042
:104600002046FEF7CDFC2068C06940210840002804
:1046100007D0206800680840002802D02046FEF736
:10462000A1FC00BFB1E70000630E000070B50546B5
:104630006C682DE02169A068884201D30020A06049
:10464000A168481CA0602068415C1F48026800689F
:10465000401C1D4B18601D4881542169A068884288
:1046600001D30020A060E068401EE060002800D177
:10467000E06028680068C06920210840002807D051
:104680002868006800680840002801D0002070BD3C
:10469000E068002803D00C4800688028CAD30A4884
:1046A000006800280DD0FFF77FFC0646032E08D1D6
:1046B0000548008881B20548FFF7B4FC0020024994
:1046C00008600020E3E70000E014002050270020ED
:1046D00010B5002202210348FBF7DDFE0248FFF778
:1046E0001FFE10BD000C0048C423002010B501229D
:1046F00002210348FBF7CFFE0248FFF71DFE10BD65
:10470000000C0048C4230020000000000102030444
:1047100001020304060708095A594E515F31563009
:104720005F53454E534500005A594E515F31563242
:104730005F53454E53450000564444494F325F3362
:1047400056335F53454E5345000000004D41494EDE
:104750005F3356335F53454E534500005A594E510F
:104760005F3356335F53454E534500004D41494E2C
:104770005F3156385F53454E534500005A594E51EC
:104780005F3156385F53454E5345000056555342EE
:104790005F53454E5345000056494E5F53454E53B7
:1047A00045000000C447000800000020E414000099
:1047B0004001000844510008E4140020EC160000F9
:1047C000D83C000852000103208000011006B93FC8
:1047D00000089D0412550812F5080116285201041C
:1047E00052020412036052040412056C1206701285
:1047F0000774214112097C120A80120C84120D8860
:10480000120E8C12109012119412139812149C1202
:1048100016A01218A4121AA8121CAC121EB0122054
:10482000B41222B81224BC1226C01228C4122BC8FB
:10483000122DCC1230D01232D41235D81238DC12EC
:104840003AE0123DE41240E81243EC1246F01249FD
:10485000F4124CF8124FFC16520016560416590862
:10486000165C0C166010166414166718166B1C166E
:104870006E20167224167628167A2C167E0C168256
:1048800010168614168A18168E1C16932016972456
:10489000169B2816A02C16A43016A93416AD38166F
:1048A000B23C16B74012BB0412C00412C50412CAAF
:1048B0000412CF0412D40412D90412DE0412E30449
:1048C00012E90412EE0412F30412F90426FE401554
:1048D0004D120904120F04121404121A04122004B7
:1048E000122504122B04123104123704123D041253
:1048F0004304124904124F04125504125B0412615E
:1049000004126804126E04127404127B04128104EF
:10491000128804128E04129504129B0412A204122F
:10492000A80412AF0412B60412BD0412C30412CAC2
:104930000412D10412D80412DF0412E60412ED04AA
:1049400012F40412FB9C1602E5120904121104125F
:104950001804121F04122604122D04123504123CEE
:1049600004124304124B04125204125A041261043A
:10497000126904127004127804127F041287041260
:104980008F04129604129E0412A50412AD0412B5EF
:104990000412BD0412C40412CC0412D40412DC04A8
:1049A00012E40412EB0412F30412FB841A036912DA
:1049B0000B04121304121B04122304122A041232D1
:1049C00004123A04124204124A04125204125A0403
:1049D000126204126A04127204127A04128204121D
:1049E0008A04129204129A0412A20412AA0412B2A5
:1049F0000412BA0412C30412CB0412D30412DB044F
:104A000012E30412EB0412F30412FB7C1A03E1120A
:104A10000B04121304121B04122304122B0412336E
:104A200004123B04124304124B04125304125A049E
:104A3000126204126A04127204127A0412820412BC
:104A40008A0412920412990412A10412A90412B148
:104A50000412B90412C00412C80412D00412D804FB
:104A600012DF0412E70412EE0412F60412FE801E96
:104A7000056103120D04121404121C041223041203
:104A80002B04123204123A04124104124804125048
:104A900004125704125E04126504126C04127404AA
:104AA000127B0412820412890412900412970412D9
:104AB0009E0412A50412AC0412B30412BA0412C06C
:104AC0000412C70412CE0412D50412DB0412E2044D
:104AD00012E80412EF0412F50412FC8C1E02ED031E
:104AE000120904120F04121504121C0412220412DB
:104AF0002804122E04123404123A041240041246FE
:104B000004124C04125204125804125D041263047D
:104B1000126904126E04127404127A04127F0412D1
:104B20008404128A04128F04129404129A04129FAD
:104B30000412A40412A90412AE0412B30412B8049D
:104B400012BD0412C20412C60412CB0412D0041205
:104B5000D40412D90412DD0412E20412E60412EAAB
:104B60000412EF0412F30412F70412FB0412FFC044
:104B70001E03AD04120704120B04120F04121204D8
:104B8000121604121904121D041221041224041214
:104B90002704122B04122E0412310412340412378B
:104BA00004123A04123D0412400412430412450454
:104BB000124804124B04124D0412500412520412F3
:104BC0005504125704125904125B04125D04125F5B
:104BD000041261041263041265041267041269046A
:104BE000126A04126C04126D04126F041270041223
:104BF000710412730412740412750412760412778D
:104C000004127804527904127A04527B04527C0410
:104C100002117D0402157E1861346144927A5C525F
:104C200078705276805274905271A0526FB0526C6C
:104C3000C05269D05265E05261F0565D005659107D
:104C4000565520565030564B4056455056406056AB
:104C50003A70563480562E905627A05621B05619D9
:104C6000C05612D0560BE025E856FFF85AF7085AFE
:104C7000EF185AE6285ADD385AD4485ACB585AC247
:104C8000685AB8785AAE885AA4985A9AA85A8FB8CF
:104C90005A84C85A7AD85A6EE85A63F85E5808039C
:104CA0005E4C18035E4028035E3438035E284803D8
:104CB0005E1C58035E0F68032D70035EFC80035E6C
:104CC000EF90035EE2A0035ED5B0035EC7C0035E53
:104CD000BAD0035EACE0035E9EF0035E9000045E1B
:104CE0008210045E7420045E6530045E5740045EEA
:104CF0004850045E3A60045E2B70045E1C80042DF4
:104D000088042D90045EFEA0045EEEB0045EDFC059
:104D1000045ED0D0045EC0E0045EB1F0045EA10089
:104D2000055E9210055E8220055E7230055E62406F
:104D3000055E5350055E4360055E3370055E23805B
:104D4000055E1390052D98055EFBA8055EEBB80582
:104D50005EDBC8055ECBD8055EBAE8055EAAF8053D
:104D60005E9A08065E8A18065E7A28065E6A38062B
:104D70005E5A48065E4A58065E3A68065E2A78061B
:104D80005E1B88062D90062D98065EFBA8065EEB3E
:104D9000B8065EDCC8065ECCD8065EBDE8065EAD31
:104DA000F8065E9E08075E8F18075E7F28075E7014
:104DB00038075E6148075E5258075E4368075E35F4
:104DC00078075E2688075E1898072DA0072DA8078C
:104DD0005EFBB8075EEDC8075EDFD8075ED1E80767
:104DE0005EC3F8075EB608085EA818085E9B280830
:104DF0005E8E38085E8148085E7458085E686808F0
:104E00005E5B78085E4F88085E4398085E37A808A6
:104E10005E2BB8085E20C8085E14D8082DE0082D67
:104E2000E8085EFEF8085EF308095EE918095EDE30
:104E300028095ED438095ECA48095EC058095EB7C1
:104E400068095EAD78095EA488095E9B98095E9347
:104E5000A8095E8AB8095E82C8095E7AD8095E72BE
:104E6000E8095E6BF8095E64080A5E5C180A5E5623
:104E7000280A5E4F380A5E49480A5E43580A5E3D7A
:104E8000680A5E38780A5E32880A5E2D980A5E28C3
:104E9000A80A5E24B80A5E20C80A5E1CD80A5E18FA
:104EA000E80A5E14F80A5E11080B5E0E180B5E0C21
:104EB000280B5E09380B5E07480B9E055C0B9E03B2
:104EC000740B6D840B0D1AD00B6DA40B5E04900B4C
:104ED0005E0A800B5E13700B5E1E600B5E2B500B28
:104EE0005E3A400B5E4C300B5E60200B5E76100B22
:104EF0005E8E000B5EA9F00A5EC5E00A56E3D05E46
:104F000003C00A5E25B00A5E49A00A5E6E900A5E82
:104F100095800A5EBD700A5EE6600A5E11500A5E08
:104F20003C400A5E69300A5E96200A5EC4100A2D73
:104F300060035E0BF8095E3AE8095E6AD8095E9A7A
:104F4000C8095ECBB8092D10045E13A0095E43901A
:104F5000095E7280095EA170095ED060092DC004EF
:104F60005E1448095E4138095E6C28095E9718098D
:104F70005EC008095EE8F8085E0FE8085E34D808ED
:104F80005E58C8085E7AB8085E9AA8085EB89808A5
:104F90005ED488085EEF80065E0768085E1D5808CC
:104FA0005E3148085E4338085E5228085E5F180884
:104FB0005E6A08085E73F8079E79E407ADD0076D56
:104FC000BC075E79A8075E7398075E6A88075E5F14
:104FD00078075E5268075E4358075E3148075E1DDA
:104FE000380721A05EFB20075EE210075EC60007BF
:104FF0005EA9F0065E8AE0065E69D0065E46C006DF
:105000005E22100A5EFCA0065ED590065EAC8006AD
:105010005E8270065E5760065E2BD00A5EFE40061A
:105020005ED030065EA120065E7210065E4300066A
:105030005E13F0055EE3E0055EB2D0055E82C0055A
:105040005E52B0055E23300C5EF390055EC48005B1
:105050005E9670055E6960055E3C50055E11400518
:105060005EE630055EBD20055E9510055E6E0005AE
:105070005E49F0045E25E0042DD8045EF3C8045EAA
:10508000D4B8045EB7A8045E9B98045E8288045E70
:105090006B78045E5668045E4358045E3248045ED2
:1050A0002438045E1828045E0E18045E0704040EFB
:1050B0002102F80301FF0101D90103FF7F07040169
:1050C000FF04011204691CAF9847B8131E1813138C
:1050D0002FFF0FDC13128C189D30087118124C181A
:1050E0002D240832330113F33F181F0DAAAD1312FC
:1050F0006C187E031A1412F0181C0429094AD113E3
:1051000012381802110630121818B208301C041791
:10511000059BDC0B127C1802110948122818B20CEE
:10512000181C041C0687800C125C1802110D901FBD
:10513000F01313148F127ADC0840060203040607EA
:045140005B00000010
:04000005080000C12E
:00000001FF
